:100000000C9478000C94A0000C94A0000C94A00018
:100010000C94A0000C94A0000C94A0000C94A000E0
:100020000C94A0000C94A0000C94A0000C94A000D0
:100030000C94A0000C94A0000C94A0000C94A000C0
:100040000C94FF060C94A0000C94CF040C941205A1
:100050000C94A0000C94A0000C94A0000C94A000A0
:100060000C94A0000C94A000FF002601260126019C
:1000700026012601260108010D01260126010501A0
:100080002601260110011301260102012601260185
:100090002601180100000007000201000003040609
:1000A0000000000000000000010204081020408051
:1000B00001020408102001020408102004040404B2
:1000C0000404040402020202020203030303030302
:1000D0000000000023002600290000000000250089
:1000E00028002B0000000000240027002A004609F9
:1000F00011241FBECFEFD8E0DEBFCDBF11E0A0E0DE
:10010000B1E0E4EEF7E102C005900D92A033B10733
:10011000D9F711E0A0E3B1E001C01D92A33EB10701
:10012000E1F710E0C8E7D0E004C02197FE010E948B
:10013000B709C737D107C9F70E9437090C94F00BEC
:100140000C94000040E052EC61E070E080E391E04C
:100150000C94910580E391E00E943104892BD1F346
:1001600080E391E00E9461048156910908950E9404
:10017000AA000E94A6084AE050E0BC0180E391E09A
:100180000C94A802CF93DF931F92CDB7DEB789837B
:100190000E94AA0069810F90DF91CF910C944A08C8
:1001A000CF93DF931F92CDB7DEB789830E94AA0059
:1001B00069810F90DF91CF910C940E080E94AA00E4
:1001C0000E947A08019711F468E601C06CE680E3AA
:1001D00091E00C948C0480E391E00E943104892B1F
:1001E000E1F180E391E00E946104FC01E156F10934
:1001F000E631F10558F5EC5CFF4F0C94B7090E940D
:10020000B70024C00E94DE0021C080E090E002C060
:1002100081E090E00E94C20019C080E090E005C03B
:1002200081E090E002C082E090E00E94D0000EC029
:1002300067E071E080E391E00E9487014AE050E0CE
:1002400061E070E080E391E00E94A80260E171E06B
:1002500080E391E00E948701BECF0895CF92DF92A4
:10026000EF92FF920F931F93CF93DF936C01EB01FB
:100270007B01E40EF51E00E010E0CE15DF0561F015
:100280006991D601ED91FC910190F081E02DC601BC
:100290000995080F191FF1CFC801DF91CF911F9168
:1002A0000F91FF90EF90DF90CF900895EF92FF9223
:1002B0000F931F93CF93DF937C01FB0100E010E0CD
:1002C0006491EF012196662361F0D701ED91FC91D5
:1002D0000190F081E02DC7010995080F191FFE015B
:1002E000EFCFC801DF91CF911F910F91FF90EF9059
:1002F0000895DC01ED91FC91DB0114964D915C9128
:1003000015976D917C910280F381E02D09940C94F6
:100310002209DC01ED91FC910190F081E02D09941E
:10032000DB01ED91FC9111970190F081E02DBC0172
:10033000CD0109940F931F93CF93DF93EC016DE0F0
:100340000E9489018C016AE0CE010E948901800F20
:10035000911FDF91CF911F910F9108950F931F93DC
:10036000CF93DF93EC010E9456018C01CE010E94D5
:100370009A01800F911FDF91CF911F910F910895E6
:100380000F931F93CF93DF93EC010E9479018C01AF
:10039000CE010E949A01800F911FDF91CF911F9192
:1003A0000F9108950F931F93CF93DF93EC010E9459
:1003B00022098C01CE010E949A01800F911FDF91CA
:1003C000CF911F910F9108950F931F93CF93DF93B8
:1003D000EC010E9489018C01CE010E949A01800FDC
:1003E000911FDF91CF911F910F9108950F931F934C
:1003F000CF93DF93EC010E9490018C01CE010E940B
:100400009A01800F911FDF91CF911F910F91089555
:100410008F929F92AF92BF92CF92DF92EF92FF9214
:100420000F931F93CF93DF93CDB7DEB7A1970FB68E
:10043000F894DEBF0FBECDBF6C01142FE52FCB01AA
:10044000022F19A2223008F40AE07E0121E2E20E16
:10045000F11C802E912CA12CB12C612F7E2FA50197
:1004600094010E949509029F1019112481E0E81A55
:10047000F1081A3014F4105D01C0195CF701108303
:10048000122FE32FCA01232B242B252B31F7B70181
:10049000C6010E942209A1960FB6F894DEBF0FBED6
:1004A000CDBFDF91CF911F910F91FF90EF90DF9023
:1004B000CF90BF90AF909F908F900895CF92DF9292
:1004C000EF92FF920F931F93CF93DF93EC016A019A
:1004D0007B012115310579F4E881F9810190F081E2
:1004E000E02D642FDF91CF911F910F91FF90EF903E
:1004F000DF90CF9009942A303105E9F477FF1AC0D4
:100500006DE20E9489018C0144275527BA014C19DC
:100510005D096E097F092AE0CE010E940802800F62
:10052000911FDF91CF911F910F91FF90EF90DF907E
:10053000CF9008952AE0B701A601CE01DF91CF91B7
:100540001F910F91FF90EF90DF90CF900C940802D5
:100550009A01AB01662757FD6095762F0C945E02D9
:100560000F931F93CF93DF93EC019A01AB016627A2
:1005700057FD6095762F0E945E028C01CE010E948D
:100580009A01800F911FDF91CF911F910F910895D4
:100590000F931F93CF93DF93EC010E945E028C01B7
:1005A000CE010E949A01800F911FDF91CF911F9180
:1005B0000F9108952115310541F4DC01ED91FC9175
:1005C0000190F081E02D642F09940C9408029A01A7
:1005D000462F50E060E070E00C94DA020F931F9316
:1005E000CF93DF93EC019A01462F50E060E070E07A
:1005F0000E94DA028C01CE010E949A01800F911FA5
:10060000DF91CF911F910F9108959A01AB0160E0A6
:1006100070E00C94DA020F931F93CF93DF93EC01F9
:100620009A01AB0160E070E00E94DA028C01CE0119
:100630000E949A01800F911FDF91CF911F910F911E
:1006400008950F931F93CF93DF93EC010E94DA027A
:100650008C01CE010E949A01800F911FDF91CF91F2
:100660001F910F9108954F925F926F927F928F9298
:100670009F92AF92BF92CF92DF92EF92FF92CF9371
:10068000DF93EC016A017B01B22E9A01AB01C70135
:10069000B6010E94EC0B882319F062E171E027C0DB
:1006A00026013701E89477F82FEF3FEF4FE75FE738
:1006B000C301B2010E94EC0B81110DC02FEF3FEF7F
:1006C0004FE75FE7C301B2010E94360A18161CF417
:1006D00066E171E00CC02FEF3FEF4FE75FE4C70129
:1006E000B6010E94850B18169CF46AE171E0CE01F8
:1006F000DF91CF91FF90EF90DF90CF90BF90AF90C0
:100700009F908F907F906F905F904F900C942209F4
:100710002FEF3FEF4FE75FECC701B6010E94360AAB
:1007200087FDE3CF20E030E0A901C701B6010E94B8
:10073000360A87FF0AC06DE2CE010E9489014C0192
:10074000F7FAF094F7F8F09402C0812C912CA12CC8
:1007500060E070E080E09FE3AB1441F020E030E027
:1007600040E251E40E943A0AA394F6CF9B01AC0107
:10077000C701B6010E94D2092B013C010E94A70AC1
:100780006B017C010E94D30A9B01AC01C301B20141
:100790000E94D1092B013C012AE0B701A601CE013C
:1007A0000E9408027C01E80CF91CBB2039F06EE1C4
:1007B00071E0CE010E942209E80EF91EDB2CDD203B
:1007C00041F120E030E040E251E4C301B2010E9477
:1007D000890B2B013C010E94A20A4B01AA2497FC21
:1007E000A094BA2C2AE030E0B501A401CE010E9409
:1007F0005E02E80EF91EC501B4010E94D50A9B01F4
:10080000AC01C301B2010E94D1092B013C01DA9471
:10081000D6CFC701DF91CF91FF90EF90DF90CF90BF
:10082000BF90AF909F908F907F906F905F904F9010
:1008300008950C9433030F931F93CF93DF93EC0130
:100840000E9433038C01CE010E949A01800F911FF8
:10085000DF91CF911F910F91089580E090E008956E
:100860000895FC0124853585F901E05CFF4F808106
:100870009181329620813181805C9F4F821B930B46
:1008800060E470E00E9481090895DC011C96ED91FE
:10089000FC911D97DF01A05CBF4F2D913C911197FA
:1008A00012968D919C9111972817390739F08D91E7
:1008B0009C91E80FF91F808190E008958FEF9FEFE2
:1008C0000895FC01A485B585FD01E05CFF4F208102
:1008D00031813296808191812817390779F08081A2
:1008E0009181A80FB91F8C91208131812F5F3F4FDB
:1008F0002F7333273183208390E008958FEF9FEF8C
:100900000895FC0181A1882329F0A489B5898C91DF
:1009100086FFFBCF11A208950F931F93CF93DF9310
:10092000FC01A685B7858D01005C1F4FE801888119
:10093000998101968F739927AD014E5B5F4FEA0154
:100940002881398182179307D1F3E8012881398101
:10095000A20FB31F6C93A685B785A05CBF4F1196FD
:100960009C938E93A689B7892C9181E090E0078CA7
:1009700002C0880F991F0A94E2F7822B8C9381E0C2
:1009800081A30488F589E02D80818064808381E0E3
:1009900090E0DF91CF911F910F91089508951F92DC
:1009A0000F920FB60F9211242F934F935F938F9353
:1009B0009F93EF93FF938091C00082FD1CC0209114
:1009C000C6008091D6019091D70101968F73992727
:1009D0004091D8015091D9018417950771F0E091A9
:1009E000D601F091D701EA56FE4F20839093D701AC
:1009F0008093D60102C08091C600FF91EF919F9134
:100A00008F915F914F912F910F900FBE0F901F907C
:100A1000189580E391E00E943104892B11F00C9429
:100A2000CE0408951F920F920FB60F9211242F93A8
:100A30003F938F939F93EF93FF9320919201309177
:100A4000930180919401909195012817390731F411
:100A50008091C1008F7D8093C10014C0E09194010A
:100A6000F0919501EE5AFE4F208180919401909172
:100A7000950101968F739927909395018093940126
:100A80002093C600FF91EF919F918F913F912F91FD
:100A90000F900FBE0F901F9018958F929F92AF925C
:100AA000BF92CF92DF92EF92FF920F931F93CF935B
:100AB000DF93CDB7DEB7FC011382128288EE93E09C
:100AC000A0E0B0E084839583A683B78384E291E0BD
:100AD000918380837587648757874687318B208B06
:100AE000138B028BF58AE48AD78AC68AB18EA08ED0
:100AF000938E828E8F85848F8889858F8989868F52
:100B00008A89878F8B8980A3DF91CF911F910F9165
:100B1000FF90EF90DF90CF90BF90AF909F908F901D
:100B20000895CF92DF92EF92FF920F931F93CF938E
:100B3000DF93EC016A017B01411581EE58076105E5
:100B4000710511F1EC89FD8981E090E008A002C0F7
:100B5000880F991F0A94E2F7808360E079E08DE3C3
:100B600090E0A70196010E94950989019A01015020
:100B7000110921093109369527951795079598018F
:100B8000011580E11807A8F0EC89FD89108260E862
:100B900074E88EE190E0A70196010E949509DA01C0
:100BA000C9010197A109B109B695A79597958795B0
:100BB0009C01E889F9893083EA89FB89208319A29D
:100BC000EE89FF89408181E090E09C010C8C02C09D
:100BD000220F331F0A94E2F7242B2083EE89FF892A
:100BE00040819C010D8C02C0220F331F0A94E2F752
:100BF000242B2083EE89FF8940819C010E8C02C04A
:100C0000220F331F0A94E2F7242B2083EE89FF89F9
:100C100020810F8C02C0880F991F0A94E2F78095FB
:100C200082238083DF91CF911F910F91FF90EF90EE
:100C3000DF90CF900895CF92DF92EF92FF921F93B3
:100C4000CF93DF93EC016A017B01122F411581EEF6
:100C500058076105710509F1EC89FD8981E090E093
:100C600008A002C0880F991F0A94E2F7808360E011
:100C700079E08DE390E0A70196010E949509DA01E1
:100C8000C9010197A109B109B695A79597958795CF
:100C9000AC01411580E15807A8F0EC89FD8910826C
:100CA00060E874E88EE190E0A70196010E94950942
:100CB000BA01A901415051096109710976956795F9
:100CC00057954795E889F9895083EA89FB894083DC
:100CD000E88DF98D1083EE89FF89408181E090E0F5
:100CE0009C010C8C02C0220F331F0A94E2F7242BC4
:100CF0002083EE89FF8940819C010D8C02C0220F68
:100D0000331F0A94E2F7242B2083EE89FF89408168
:100D10009C010E8C02C0220F331F0A94E2F7242B91
:100D20002083EE89FF8920810F8C02C0880F991FD4
:100D30000A94E2F7809582238083DF91CF911F91FF
:100D4000FF90EF90DF90CF900895CF93DF93FC0159
:100D500086859785EC01C05CDF4FDC01AE5BBF4F41
:100D6000288139818D919C91119728173907C1F7F6
:100D7000A689B7893C9181E090E0AC01048C02C067
:100D8000440F551F0A94E2F7242F209523232C9318
:100D9000A689B7893C91AC01058C02C0440F551F50
:100DA0000A94E2F7242F209523232C93A689B78950
:100DB0003C91AC01068C02C0440F551F0A94E2F727
:100DC000242F209523232C93A689B7892C91078C57
:100DD00002C0880F991F0A94E2F7809582238C93B2
:100DE00084859585FC01EE5BFF4F20813181329730
:100DF00031832083DF91CF91089581E008951F9280
:100E00000F920FB60F9211242F933F938F939F93BE
:100E1000AF93BF938091DA019091DB01A091DC0147
:100E2000B091DD013091E20123E0230F2D3720F452
:100E30000196A11DB11D05C026E8230F0296A11D34
:100E4000B11D2093E2018093DA019093DB01A0931E
:100E5000DC01B093DD018091DE019091DF01A09172
:100E6000E001B091E1010196A11DB11D8093DE0169
:100E70009093DF01A093E001B093E101BF91AF91A6
:100E80009F918F913F912F910F900FBE0F901F90C8
:100E900018952FB7F8946091DA017091DB01809179
:100EA000DC019091DD012FBF08953FB7F894809148
:100EB000DE019091DF01A091E001B091E10126B542
:100EC000A89B05C02F3F19F00196A11DB11D3FBF82
:100ED000BA2FA92F982F8827820F911DA11DB11D10
:100EE000BC01CD0142E0660F771F881F991F4A950C
:100EF000D1F70895CF92DF92EF92FF92CF93DF93D5
:100F00006B017C010E945507EB01C114D104E1047F
:100F1000F10479F00E9455076C1B7D0B683E73400D
:100F2000A0F381E0C81AD108E108F108C851DC4FEC
:100F3000ECCFDF91CF91FF90EF90DF90CF900895AD
:100F4000019739F0880F991F880F991F0297019711
:100F5000F1F70895789484B5826084BD84B581608A
:100F600084BD85B5826085BD85B5816085BDEEE6B1
:100F7000F0E0808181608083E1E8F0E01082808190
:100F800082608083808181608083E0E8F0E08081FE
:100F900081608083E1EBF0E0808184608083E0EB1E
:100FA000F0E0808181608083EAE7F0E08081846006
:100FB0008083808182608083808181608083808162
:100FC000806880831092C1000895833081F028F4F6
:100FD000813099F08230A1F008958630A9F08730F1
:100FE000B9F08430D1F4809180008F7D03C080916E
:100FF00080008F7780938000089584B58F7702C03A
:1010000084B58F7D84BD08958091B0008F7703C033
:101010008091B0008F7D8093B0000895CF93DF93CF
:1010200090E0FC01E855FF4F2491FC01E454FF4F90
:101030008491882361F190E0880F991FFC01EC51A5
:10104000FF4FC591D491FC01E652FF4FA591B49199
:10105000611109C09FB7F894888120958223888305
:10106000EC912E230BC0623061F49FB7F894388165
:10107000822F809583238883EC912E2B2C939FBF06
:1010800006C08FB7F894E8812E2B28838FBFDF919D
:10109000CF9108951F93CF93DF93282F30E0F9016C
:1010A000EC56FF4F8491F901E855FF4FD491F901B7
:1010B000E454FF4FC491CC23C9F0162F81110E9434
:1010C000E507EC2FF0E0EE0FFF1FE652FF4FA59172
:1010D000B4918FB7F894111105C09C91ED2FE09554
:1010E000E92302C0EC91ED2BEC938FBFDF91CF9100
:1010F0001F910895CF93DF93282F30E0F901EC562C
:10110000FF4F8491F901E855FF4FD491F901E45460
:10111000FF4FC491CC2391F081110E94E507EC2F81
:10112000F0E0EE0FFF1FE053FF4FA591B491EC915B
:10113000ED2381E090E021F480E002C080E090E0C7
:10114000DF91CF9108958093000108958E3008F0CB
:101150008E5087702091000190E4299F9001112406
:10116000822B80937C0080917A00806480937A0047
:1011700080917A0086FDFCCF8091780020917900E3
:1011800090E0922B08951F93CF93DF93182FEB01DC
:1011900061E00E940E08209711F460E004C0CF3F88
:1011A000D10539F461E0812FDF91CF911F910C942B
:1011B0004A08E12FF0E0EC56FF4FE491E330F9F0FC
:1011C00048F4E130B9F0E230A1F584B5806284BD25
:1011D000C8BD34C0E630E9F0E73019F1E43049F534
:1011E00080918000806280938000D0938B00C093B8
:1011F0008A0024C084B5806884BDC7BD1FC08091AB
:101200008000806880938000D0938900C09388001C
:1012100015C08091B00080688093B000C093B30087
:101220000DC08091B00080628093B000C093B40084
:1012300005C0C038D1050CF0B5CFAFCFDF91CF914D
:101240001F9108956115710579F0FB01019000204F
:10125000E9F73197AF01461B570BDC01ED91FC918B
:101260000280F381E02D099480E090E008950E94CF
:10127000AA070E9430040E94A200C9E0D5E00E94A3
:10128000EB002097E1F30E940905F9CFE0E3F1E0DC
:101290001382128288EE93E0A0E0B0E0848395830D
:1012A000A683B78384E291E09183808386E991E00D
:1012B0009587848782E591E09787868785EC90E023
:1012C000918B808B84EC90E0938B828B80EC90E010
:1012D000958B848B81EC90E0978B868B82EC90E0F1
:1012E000918F808F86EC90E0938F828F84E0848F43
:1012F00083E0858F87E0868F85E0878F81E080A3FC
:10130000089597FB072E16F4009407D077FD09D0B7
:101310000E94BD0907FC05D03EF4909581959F4F32
:101320000895709561957F4F0895A1E21A2EAA1B2A
:10133000BB1BFD010DC0AA1FBB1FEE1FFF1FA21785
:10134000B307E407F50720F0A21BB30BE40BF50B82
:10135000661F771F881F991F1A9469F7609570950B
:10136000809590959B01AC01BD01CF010895EE0FD2
:10137000FF1F0590F491E02D0994AA1BBB1B51E1BE
:1013800007C0AA1FBB1FA617B70710F0A61BB70BF5
:10139000881F991F5A95A9F780959095BC01CD019A
:1013A00008955058BB27AA270ED075C166D130F0DA
:1013B0006BD120F031F49F3F11F41EF45BC10EF4A9
:1013C000E095E7FB51C1E92F77D180F3BA176207A7
:1013D00073078407950718F071F49EF58FC10EF41A
:1013E000E0950B2EBA2FA02D0B01B90190010C0135
:1013F000CA01A0011124FF27591B99F0593F50F44D
:10140000503E68F11A16F040A22F232F342F4427A4
:10141000585FF3CF469537952795A795F04053959C
:10142000C9F77EF41F16BA0B620B730B840BBAF06C
:101430009150A1F0FF0FBB1F661F771F881FC2F7D7
:101440000EC0BA0F621F731F841F48F487957795EB
:101450006795B795F7959E3F08F0B3CF9395880FA2
:1014600008F09927EE0F979587950895D9D008F43D
:1014700081E008950CD00FC107D140F0FED030F0CC
:1014800021F45F3F19F0F0C0511139C1F3C014D1FC
:1014900098F39923C9F35523B1F3951B550BBB273B
:1014A000AA2762177307840738F09F5F5F4F220FE8
:1014B000331F441FAA1FA9F333D00E2E3AF0E0E8E1
:1014C00030D091505040E695001CCAF729D0FE2F2D
:1014D00027D0660F771F881FBB1F261737074807BF
:1014E000AB07B0E809F0BB0B802DBF01FF27935875
:1014F0005F4F2AF09E3F510568F0B6C000C15F3FC4
:10150000ECF3983EDCF3869577956795B795F7955C
:101510009F5FC9F7880F911D9695879597F9089554
:10152000E1E0660F771F881FBB1F621773078407F0
:10153000BA0720F0621B730B840BBA0BEE1F88F7FF
:10154000E095089504D06894B111D9C00895BCD035
:1015500088F09F5790F0B92F9927B751A0F0D1F09C
:10156000660F771F881F991F1AF0BA95C9F712C026
:10157000B13081F0C3D0B1E00895C0C0672F782F9B
:101580008827B85F39F0B93FCCF386957795679592
:10159000B395D9F73EF490958095709561957F4FFE
:1015A0008F4F9F4F0895E89409C097FB3EF49095A4
:1015B0008095709561957F4F8F4F9F4F9923A9F02C
:1015C000F92F96E9BB279395F695879577956795BB
:1015D000B795F111F8CFFAF4BB0F11F460FF1BC0FF
:1015E0006F5F7F4F8F4F9F4F16C0882311F096E992
:1015F00011C0772321F09EE8872F762F05C0662340
:1016000071F096E8862F70E060E02AF09A95660FF8
:10161000771F881FDAF7880F9695879597F90895B1
:10162000990F0008550FAA0BE0E8FEEF16161706F3
:10163000E807F907C0F012161306E407F50798F05B
:10164000621B730B840B950B39F40A2661F0232B74
:10165000242B252B21F408950A2609F4A140A695F0
:101660008FEF811D811D089597F99F6780E870E0D5
:1016700060E008959FEF80EC089500240A94161608
:10168000170618060906089500240A941216130670
:10169000140605060895092E0394000C11F48823FE
:1016A00052F0BB0F40F4BF2B11F460FF04C06F5F1A
:1016B0007F4F8F4F9F4F089557FD9058440F551FF0
:1016C00059F05F3F71F04795880F97FB991F61F0C4
:1016D0009F3F79F087950895121613061406551F3B
:1016E000F2CF4695F1DF08C0161617061806991FA7
:1016F000F1CF86957105610508940895E894BB279C
:1017000066277727CB0197F908958ADF08F48FEFD2
:1017100008950BD0C0CFB1DF28F0B6DF18F09523C5
:1017200009F0A2CFA7CF1124EACFC6DFA0F3959F7F
:10173000D1F3950F50E0551F629FF001729FBB27B8
:10174000F00DB11D639FAA27F00DB11DAA1F649F64
:101750006627B00DA11D661F829F2227B00DA11D17
:10176000621F739FB00DA11D621F839FA00D611D9D
:10177000221F749F3327A00D611D231F849F600DBE
:10178000211D822F762F6A2F11249F5750408AF0F7
:10179000E1F088234AF0EE0FFF1FBB1F661F771F83
:1017A000881F91505040A9F79E3F510570F05CCFC3
:1017B000A6CF5F3FECF3983EDCF38695779567956F
:1017C000B795F795E7959F5FC1F7FE2B880F911DA1
:1017D0009695879597F9089523DF880B990B0895BF
:0417E000F894FFCFAB
:1017E400010000E301200053526475696E6F3A00F2
:1017F4000A006E616E00696E66006F7666002E00E8
:10180400000000008C042E013104610445048104AD
:00000001FF
